{
  "contractName": "obscure_lock",
  "abi": [
    {
      "constant": false,
      "inputs": [
        {
          "internalType": "string",
          "name": "_locker_id",
          "type": "string"
        },
        {
          "internalType": "string",
          "name": "_user_id",
          "type": "string"
        },
        {
          "internalType": "string",
          "name": "_status",
          "type": "string"
        },
        {
          "internalType": "string",
          "name": "_weight",
          "type": "string"
        },
        {
          "internalType": "string",
          "name": "_timestemp",
          "type": "string"
        }
      ],
      "name": "set",
      "outputs": [],
      "payable": false,
      "stateMutability": "nonpayable",
      "type": "function"
    },
    {
      "constant": true,
      "inputs": [],
      "name": "get",
      "outputs": [
        {
          "components": [
            {
              "internalType": "uint256",
              "name": "id",
              "type": "uint256"
            },
            {
              "internalType": "string",
              "name": "locker_id",
              "type": "string"
            },
            {
              "internalType": "string",
              "name": "user_id",
              "type": "string"
            },
            {
              "internalType": "string",
              "name": "status",
              "type": "string"
            },
            {
              "internalType": "string",
              "name": "weight",
              "type": "string"
            },
            {
              "internalType": "string",
              "name": "timestemp",
              "type": "string"
            }
          ],
          "internalType": "struct obscure_lock.Data[]",
          "name": "",
          "type": "tuple[]"
        }
      ],
      "payable": false,
      "stateMutability": "view",
      "type": "function"
    }
  ],
  "bytecode": "0x60806040526000805534801561001457600080fd5b506109e8806100246000396000f3fe608060405234801561001057600080fd5b50600436106100365760003560e01c80631a0b8d551461003b5780636d4ce63c14610057575b600080fd5b61005560048036036100509190810190610613565b610075565b005b61005f610187565b60405161006c9190610878565b60405180910390f35b60016040518060c00160405280600054815260200187815260200186815260200185815260200184815260200183815250908060018154018082558091505090600182039060005260206000209060060201600090919290919091506000820151816000015560208201518160010190805190602001906100f792919061051a565b50604082015181600201908051906020019061011492919061051a565b50606082015181600301908051906020019061013192919061051a565b50608082015181600401908051906020019061014e92919061051a565b5060a082015181600501908051906020019061016b92919061051a565b5050505060008081548092919060010191905055505050505050565b60606001805480602002602001604051908101604052809291908181526020016000905b8282101561051157838290600052602060002090600602016040518060c001604052908160008201548152602001600182018054600181600116156101000203166002900480601f0160208091040260200160405190810160405280929190818152602001828054600181600116156101000203166002900480156102715780601f1061024657610100808354040283529160200191610271565b820191906000526020600020905b81548152906001019060200180831161025457829003601f168201915b50505050508152602001600282018054600181600116156101000203166002900480601f0160208091040260200160405190810160405280929190818152602001828054600181600116156101000203166002900480156103135780601f106102e857610100808354040283529160200191610313565b820191906000526020600020905b8154815290600101906020018083116102f657829003601f168201915b50505050508152602001600382018054600181600116156101000203166002900480601f0160208091040260200160405190810160405280929190818152602001828054600181600116156101000203166002900480156103b55780601f1061038a576101008083540402835291602001916103b5565b820191906000526020600020905b81548152906001019060200180831161039857829003601f168201915b50505050508152602001600482018054600181600116156101000203166002900480601f0160208091040260200160405190810160405280929190818152602001828054600181600116156101000203166002900480156104575780601f1061042c57610100808354040283529160200191610457565b820191906000526020600020905b81548152906001019060200180831161043a57829003601f168201915b50505050508152602001600582018054600181600116156101000203166002900480601f0160208091040260200160405190810160405280929190818152602001828054600181600116156101000203166002900480156104f95780601f106104ce576101008083540402835291602001916104f9565b820191906000526020600020905b8154815290600101906020018083116104dc57829003601f168201915b505050505081525050815260200190600101906101ab565b50505050905090565b828054600181600116156101000203166002900490600052602060002090601f016020900481019282601f1061055b57805160ff1916838001178555610589565b82800160010185558215610589579182015b8281111561058857825182559160200191906001019061056d565b5b509050610596919061059a565b5090565b6105bc91905b808211156105b85760008160009055506001016105a0565b5090565b90565b600082601f8301126105d057600080fd5b81356105e36105de826108c7565b61089a565b915080825260208301602083018583830111156105ff57600080fd5b61060a838284610952565b50505092915050565b600080600080600060a0868803121561062b57600080fd5b600086013567ffffffffffffffff81111561064557600080fd5b610651888289016105bf565b955050602086013567ffffffffffffffff81111561066e57600080fd5b61067a888289016105bf565b945050604086013567ffffffffffffffff81111561069757600080fd5b6106a3888289016105bf565b935050606086013567ffffffffffffffff8111156106c057600080fd5b6106cc888289016105bf565b925050608086013567ffffffffffffffff8111156106e957600080fd5b6106f5888289016105bf565b9150509295509295909350565b600061070e83836107c4565b905092915050565b600061072182610903565b61072b8185610926565b93508360208202850161073d856108f3565b8060005b85811015610779578484038952815161075a8582610702565b945061076583610919565b925060208a01995050600181019050610741565b50829750879550505050505092915050565b60006107968261090e565b6107a08185610937565b93506107b0818560208601610961565b6107b981610994565b840191505092915050565b600060c0830160008301516107dc6000860182610869565b50602083015184820360208601526107f4828261078b565b9150506040830151848203604086015261080e828261078b565b91505060608301518482036060860152610828828261078b565b91505060808301518482036080860152610842828261078b565b91505060a083015184820360a086015261085c828261078b565b9150508091505092915050565b61087281610948565b82525050565b600060208201905081810360008301526108928184610716565b905092915050565b6000604051905081810181811067ffffffffffffffff821117156108bd57600080fd5b8060405250919050565b600067ffffffffffffffff8211156108de57600080fd5b601f19601f8301169050602081019050919050565b6000819050602082019050919050565b600081519050919050565b600081519050919050565b6000602082019050919050565b600082825260208201905092915050565b600082825260208201905092915050565b6000819050919050565b82818337600083830152505050565b60005b8381101561097f578082015181840152602081019050610964565b8381111561098e576000848401525b50505050565b6000601f19601f830116905091905056fea365627a7a72315820d8401bc917f8a233083a63749d388f3d86c85ef25873d1e97ab807af0711ff786c6578706572696d656e74616cf564736f6c63430005100040",
  "source": "pragma solidity ^0.5.0;\r\npragma experimental ABIEncoderV2;\r\n\r\ncontract obscure_lock {\r\n uint i=0;\r\n struct Data\r\n   {\r\n       uint id;\r\n       string locker_id;\r\n       string user_id;\r\n       string status;\r\n       string weight;\r\n       string timestemp;\r\n   }\r\n   Data[] datas;\r\n function set(string memory _locker_id,string memory _user_id,string memory _status,string memory _weight,string memory _timestemp) public {\r\n   datas.push(Data(i,_locker_id,_user_id,_status,_weight,_timestemp));\r\n   i++;\r\n }\r\n\r\n function get() public view returns(Data[] memory) {\r\n     return datas;\r\n }\r\n}",
  "sourcePath": "F:\\scet\\LOCK\\BlockChain\\contracts\\obscure_lock.sol",
  "compiler": {
    "name": "solc",
    "version": "0.5.16+commit.9c3226ce.Emscripten.clang"
  },
  "schemaVersion": "3.0.23",
  "updatedAt": "2020-02-29T17:31:20.891Z",
  "networkType": "ethereum",
  "devdoc": {
    "methods": {}
  },
  "userdoc": {
    "methods": {}
  }
}